:020000000328D3
:1000060083160317081103130511861107118712AA
:100016008312051186110711871205150630FB009C
:100026001330FC00AD30FD00FD0B1728FC0B172824
:10003600FB0B17280000000005110630FB001330EB
:10004600FC00AD30FD00FD0B2628FC0B2628FB0B23
:1000560026280000000086150630FB001330FC0041
:10006600AD30FD00FD0B3528FC0B3528FB0B352884
:100076000000000086110630FB001330FC00AD3096
:10008600FD00FD0B4428FC0B4428FB0B4428000014
:10009600000007150630FB001330FC00AD30FD00F4
:1000A600FD0B5328FC0B5328FB0B532800000000C4
:1000B60007110630FB001330FC00AD30FD00FD0BD0
:1000C6006228FC0B6228FB0B6228000000008716E2
:1000D6000630FB001330FC00AD30FD00FD0B71282F
:1000E600FC0B7128FB0B71280000000087120630FC
:1000F600FB001330FC00AD30FD00FD0B8028FC0B2F
:0E0106008028FB0B80280000000010288928AC
:04400E00F22F000786
:00000001FF
